{
  "contractName": "notas",
  "abi": [
    {
      "inputs": [],
      "stateMutability": "nonpayable",
      "type": "constructor"
    },
    {
      "anonymous": false,
      "inputs": [
        {
          "indexed": false,
          "internalType": "bytes32",
          "name": "",
          "type": "bytes32"
        },
        {
          "indexed": false,
          "internalType": "uint256",
          "name": "",
          "type": "uint256"
        }
      ],
      "name": "alumno_evaluado",
      "type": "event"
    },
    {
      "anonymous": false,
      "inputs": [
        {
          "indexed": false,
          "internalType": "string",
          "name": "",
          "type": "string"
        }
      ],
      "name": "evento_revision",
      "type": "event"
    },
    {
      "inputs": [],
      "name": "profesor",
      "outputs": [
        {
          "internalType": "address",
          "name": "",
          "type": "address"
        }
      ],
      "stateMutability": "view",
      "type": "function",
      "constant": true
    },
    {
      "inputs": [
        {
          "internalType": "string",
          "name": "_asignatura",
          "type": "string"
        },
        {
          "internalType": "string",
          "name": "_idAlumno",
          "type": "string"
        },
        {
          "internalType": "uint256",
          "name": "_nota",
          "type": "uint256"
        }
      ],
      "name": "evaluar",
      "outputs": [],
      "stateMutability": "nonpayable",
      "type": "function"
    },
    {
      "inputs": [
        {
          "internalType": "string",
          "name": "_asignatura",
          "type": "string"
        },
        {
          "internalType": "string",
          "name": "_idAlumno",
          "type": "string"
        }
      ],
      "name": "verNotas",
      "outputs": [
        {
          "internalType": "uint256",
          "name": "",
          "type": "uint256"
        }
      ],
      "stateMutability": "view",
      "type": "function",
      "constant": true
    },
    {
      "inputs": [
        {
          "internalType": "string",
          "name": "_asignatura",
          "type": "string"
        },
        {
          "internalType": "string",
          "name": "_idAlumno",
          "type": "string"
        }
      ],
      "name": "revision",
      "outputs": [],
      "stateMutability": "nonpayable",
      "type": "function"
    },
    {
      "inputs": [
        {
          "internalType": "string",
          "name": "_asignatura",
          "type": "string"
        }
      ],
      "name": "verRevisiones",
      "outputs": [
        {
          "internalType": "string[]",
          "name": "",
          "type": "string[]"
        }
      ],
      "stateMutability": "view",
      "type": "function",
      "constant": true
    }
  ],
  "bytecode": "0x608060405234801561001057600080fd5b50336000806101000a81548173ffffffffffffffffffffffffffffffffffffffff021916908373ffffffffffffffffffffffffffffffffffffffff160217905550610c00806100606000396000f3fe608060405234801561001057600080fd5b50600436106100575760003560e01c806307abac211461005c57806315349c841461008c5780639d3efa1f146100a8578063df096576146100c4578063e0b8c302146100e2575b600080fd5b610076600480360381019061007191906105cf565b610112565b6040516100839190610910565b60405180910390f35b6100a660048036038101906100a1919061067c565b610299565b005b6100c260048036038101906100bd9190610610565b6103ad565b005b6100cc610440565b6040516100d991906108f5565b60405180910390f35b6100fc60048036038101906100f79190610610565b610464565b604051610109919061099d565b60405180910390f35b60603360008054906101000a900473ffffffffffffffffffffffffffffffffffffffff1673ffffffffffffffffffffffffffffffffffffffff168173ffffffffffffffffffffffffffffffffffffffff16146101a3576040517f08c379a000000000000000000000000000000000000000000000000000000000815260040161019a9061097d565b60405180910390fd5b6002836040516101b391906108ba565b9081526020016040518091039020805480602002602001604051908101604052809291908181526020016000905b8282101561028d57838290600052602060002001805461020090610b12565b80601f016020809104026020016040519081016040528092919081815260200182805461022c90610b12565b80156102795780601f1061024e57610100808354040283529160200191610279565b820191906000526020600020905b81548152906001019060200180831161025c57829003601f168201915b5050505050815260200190600101906101e1565b50505050915050919050565b3360008054906101000a900473ffffffffffffffffffffffffffffffffffffffff1673ffffffffffffffffffffffffffffffffffffffff168173ffffffffffffffffffffffffffffffffffffffff1614610328576040517f08c379a000000000000000000000000000000000000000000000000000000000815260040161031f9061097d565b60405180910390fd5b6000848460405160200161033d9291906108d1565b6040516020818303038152906040528051906020012090508260016000838152602001908152602001600020819055507f1decb51588158e4fd9a593e42935e33c4641f4958a08256e305bf6dec1092d8f818460405161039e929190610932565b60405180910390a15050505050565b6002826040516103bd91906108ba565b9081526020016040518091039020819080600181540180825580915050600190039060005260206000200160009091909190915090805190602001906104049291906104af565b507fafd73f39162aa4c0421f362f3a3d26f44b23c73253256cfc1c68794b0973e0a081604051610434919061095b565b60405180910390a15050565b60008054906101000a900473ffffffffffffffffffffffffffffffffffffffff1681565b600080838360405160200161047a9291906108d1565b604051602081830303815290604052805190602001209050600160008281526020019081526020016000205491505092915050565b8280546104bb90610b12565b90600052602060002090601f0160209004810192826104dd5760008555610524565b82601f106104f657805160ff1916838001178555610524565b82800160010185558215610524579182015b82811115610523578251825591602001919060010190610508565b5b5090506105319190610535565b5090565b5b8082111561054e576000816000905550600101610536565b5090565b6000610565610560846109e9565b6109b8565b90508281526020810184848401111561057d57600080fd5b610588848285610ad0565b509392505050565b600082601f8301126105a157600080fd5b81356105b1848260208601610552565b91505092915050565b6000813590506105c981610bb3565b92915050565b6000602082840312156105e157600080fd5b600082013567ffffffffffffffff8111156105fb57600080fd5b61060784828501610590565b91505092915050565b6000806040838503121561062357600080fd5b600083013567ffffffffffffffff81111561063d57600080fd5b61064985828601610590565b925050602083013567ffffffffffffffff81111561066657600080fd5b61067285828601610590565b9150509250929050565b60008060006060848603121561069157600080fd5b600084013567ffffffffffffffff8111156106ab57600080fd5b6106b786828701610590565b935050602084013567ffffffffffffffff8111156106d457600080fd5b6106e086828701610590565b92505060406106f1868287016105ba565b9150509250925092565b600061070783836107a2565b905092915050565b61071881610a8a565b82525050565b600061072982610a29565b6107338185610a4c565b93508360208202850161074585610a19565b8060005b85811015610781578484038952815161076285826106fb565b945061076d83610a3f565b925060208a01995050600181019050610749565b50829750879550505050505092915050565b61079c81610a9c565b82525050565b60006107ad82610a34565b6107b78185610a5d565b93506107c7818560208601610adf565b6107d081610ba2565b840191505092915050565b60006107e682610a34565b6107f08185610a6e565b9350610800818560208601610adf565b61080981610ba2565b840191505092915050565b600061081f82610a34565b6108298185610a7f565b9350610839818560208601610adf565b80840191505092915050565b6000610852604083610a6e565b91507f4e6f207075656465732061636365646572206120657374612066756e63696f6e60008301527f2c20736f6c6f20656c2070726f6665736f722070756564652068616365726c6f6020830152604082019050919050565b6108b481610ac6565b82525050565b60006108c68284610814565b915081905092915050565b60006108dd8285610814565b91506108e98284610814565b91508190509392505050565b600060208201905061090a600083018461070f565b92915050565b6000602082019050818103600083015261092a818461071e565b905092915050565b60006040820190506109476000830185610793565b61095460208301846108ab565b9392505050565b6000602082019050818103600083015261097581846107db565b905092915050565b6000602082019050818103600083015261099681610845565b9050919050565b60006020820190506109b260008301846108ab565b92915050565b6000604051905081810181811067ffffffffffffffff821117156109df576109de610b73565b5b8060405250919050565b600067ffffffffffffffff821115610a0457610a03610b73565b5b601f19601f8301169050602081019050919050565b6000819050602082019050919050565b600081519050919050565b600081519050919050565b6000602082019050919050565b600082825260208201905092915050565b600082825260208201905092915050565b600082825260208201905092915050565b600081905092915050565b6000610a9582610aa6565b9050919050565b6000819050919050565b600073ffffffffffffffffffffffffffffffffffffffff82169050919050565b6000819050919050565b82818337600083830152505050565b60005b83811015610afd578082015181840152602081019050610ae2565b83811115610b0c576000848401525b50505050565b60006002820490506001821680610b2a57607f821691505b60208210811415610b3e57610b3d610b44565b5b50919050565b7f4e487b7100000000000000000000000000000000000000000000000000000000600052602260045260246000fd5b7f4e487b7100000000000000000000000000000000000000000000000000000000600052604160045260246000fd5b6000601f19601f8301169050919050565b610bbc81610ac6565b8114610bc757600080fd5b5056fea2646970667358221220d39079724994d0ee90daffd7cba2cf7234c4700f5eb4ba759e1bc3b8ccfa391164736f6c63430008000033",
  "immutableReferences": {},
  "source": "// SPDX-License-Identifier: MIT\r\npragma solidity ^0.8.0;\r\n\r\n//Con esta sentencia indicamos que vamos a cifrar informacin del contrato..\r\npragma experimental ABIEncoderV2;\r\n\r\n//Leccin aparte: * Al referirnos a un tipo de dato hash, se debe de colocar byte(32,64,etc.. segn corresponda)..\r\n//                  Cada vez que pasemos un strint por parmetro debe ir acompaado de la palabra reservada 'memory'..\r\n\r\n//                * Al ver las cuentas por consola, dentro de truffle.. primero ejecutar 'global = this'..\r\n\r\n// -----------------------------------\r\n//  ALUMNO   |    ID    |      NOTA\r\n// -----------------------------------\r\n//  Marcos |    77755N    |      5\r\n//  Joan   |    12345X    |      9\r\n//  Maria  |    02468T    |      2\r\n//  Marta  |    13579U    |      3\r\n//  Alba   |    98765Z    |      5\r\n\r\ncontract notas {\r\n    \r\n    //Direccin del profesor..\r\n    address public profesor;\r\n    \r\n    //Constructor..\r\n    constructor() {\r\n        profesor = msg.sender;\r\n    }\r\n    \r\n    //Mapping para relacionar el hash de la identidad del alumno con su nota en el examen..\r\n    mapping(bytes32 => uint) Notas; \r\n    \r\n    //Mapping de los alumnos que pidan revisin de su examen para una asignatura..\r\n    mapping(string => string[]) Revisiones;\r\n    \r\n    //Eventos..\r\n    event alumno_evaluado(bytes32, uint); //Devuelve un hash..\r\n    event evento_revision(string);\r\n    \r\n    //Funcin para evaluar alumnos..\r\n    function evaluar(string memory _asignatura, string memory _idAlumno, uint _nota) public UnicamenteProfesor(msg.sender) {\r\n        //Hash de la identidad del alumno..\r\n        bytes32 hash_idAlumno = keccak256(abi.encodePacked(_asignatura, _idAlumno)); //CIFRADO DE INFORMACIN, CONVERTIMOS A HASH..\r\n        \r\n        //Relacin entre el hash de la identificacin del alumno y su nota..\r\n        Notas[hash_idAlumno] = _nota;\r\n        \r\n        //Emicin de evento..\r\n        emit alumno_evaluado(hash_idAlumno, _nota);\r\n    }\r\n    \r\n    //Control de las funciones ejecutables por el profesor..\r\n    modifier UnicamenteProfesor(address _direccion) {\r\n        //Requiere que la direccin introducida por parmetro sea igual al owner del contrato..\r\n        require(_direccion == profesor, \"No puedes acceder a esta funcion, solo el profesor puede hacerlo\");\r\n        _;\r\n    }\r\n    \r\n    //Funcin para ver las notas de un alumno..\r\n    function verNotas(string memory _asignatura, string memory _idAlumno) public view returns(uint) {\r\n        //Hash de la identidad del alumno..\r\n        bytes32 hash_idAlumno = keccak256(abi.encodePacked(_asignatura, _idAlumno));\r\n        \r\n        //Nota asociada al hash del alumno..\r\n        return Notas[hash_idAlumno];\r\n    }\r\n    \r\n    //Funcin para pedir una revisin del examen..\r\n    function revision(string memory _asignatura, string memory _idAlumno) public {\r\n        //Asignamos al mapping de la _asignatura recibida por parmetro, el _idAlumno que la solicita.. \r\n        Revisiones[_asignatura].push(_idAlumno);\r\n        \r\n        //Emicin de evento..\r\n        emit evento_revision(_idAlumno);\r\n    }\r\n    \r\n    //Funcin para ver los alumnos que han solicitado revisin de examen..\r\n    function verRevisiones(string memory _asignatura) public view UnicamenteProfesor(msg.sender) returns(string [] memory)  {\r\n        //Retorna las identidades de los alumnos..\r\n        return Revisiones[_asignatura];\r\n    }\r\n}",
  "sourcePath": "C:\\Users\\Usuario\\Documents\\programacionBlockchain\\CursoUdemy\\TruffleProject\\SistemaDeNotas\\contracts\\notas.sol",
  "compiler": {
    "name": "solc",
    "version": "0.8.0+commit.c7dfd78e.Emscripten.clang"
  },
  "schemaVersion": "3.4.3",
  "updatedAt": "2021-11-16T19:51:45.592Z",
  "networkType": "ethereum",
  "devdoc": {
    "kind": "dev",
    "methods": {},
    "version": 1
  },
  "userdoc": {
    "kind": "user",
    "methods": {},
    "version": 1
  }
}